{"contracts/Gaurdian.sol":{"Guardian":{"abi":[{"inputs":[],"stateMutability":"nonpayable","type":"constructor"},{"anonymous":false,"inputs":[{"indexed":true,"internalType":"address","name":"guardian","type":"address"}],"name":"GuardianAdded","type":"event"},{"anonymous":false,"inputs":[{"indexed":true,"internalType":"address","name":"guardian","type":"address"}],"name":"GuardianRemoved","type":"event"},{"inputs":[{"internalType":"address","name":"guardian","type":"address"}],"name":"addGuardian","outputs":[{"internalType":"bool","name":"","type":"bool"}],"stateMutability":"nonpayable","type":"function"},{"inputs":[{"internalType":"address","name":"","type":"address"}],"name":"guardians","outputs":[{"internalType":"bool","name":"","type":"bool"}],"stateMutability":"view","type":"function"},{"inputs":[{"internalType":"address","name":"caller","type":"address"}],"name":"isGuardian","outputs":[{"internalType":"bool","name":"","type":"bool"}],"stateMutability":"view","type":"function"},{"inputs":[],"name":"owner","outputs":[{"internalType":"address","name":"","type":"address"}],"stateMutability":"view","type":"function"},{"inputs":[{"internalType":"address","name":"guardian","type":"address"}],"name":"removeGuardian","outputs":[{"internalType":"bool","name":"","type":"bool"}],"stateMutability":"nonpayable","type":"function"}],"evm":{"bytecode":{"linkReferences":{},"object":"608060405234801561001057600080fd5b50600080546001600160a01b031916331790556102bc806100326000396000f3fe608060405234801561001057600080fd5b50600436106100675760003560e01c8063714041561161005057806371404156146100d05780638da5cb5b146100e3578063a526d83b1461010e57600080fd5b80630633b14a1461006c5780630c68ba21146100a4575b600080fd5b61008f61007a366004610256565b60016020526000908152604090205460ff1681565b60405190151581526020015b60405180910390f35b61008f6100b2366004610256565b6001600160a01b031660009081526001602052604090205460ff1690565b61008f6100de366004610256565b610121565b6000546100f6906001600160a01b031681565b6040516001600160a01b03909116815260200161009b565b61008f61011c366004610256565b6101bb565b600080546001600160a01b0316331461016d5760405162461bcd60e51b81526020600482015260096024820152682737ba1037bbb732b960b91b60448201526064015b60405180910390fd5b6001600160a01b038216600081815260016020526040808220805460ff19169055517fb8107d0c6b40be480ce3172ee66ba6d64b71f6b1685a851340036e6e2e3e3c529190a2506001919050565b600080546001600160a01b031633146102025760405162461bcd60e51b81526020600482015260096024820152682737ba1037bbb732b960b91b6044820152606401610164565b6001600160a01b0382166000818152600160208190526040808320805460ff1916909217909155517f038596bb31e2e7d3d9f184d4c98b310103f6d7f5830e5eec32bffe6f1728f9699190a2506001919050565b60006020828403121561026857600080fd5b81356001600160a01b038116811461027f57600080fd5b939250505056fea264697066735822122048b15f7101976978b9a8ae5bab1b55c9f874239690122e93865023d062f98f8864736f6c63430008130033","opcodes":"PUSH1 0x80 PUSH1 0x40 MSTORE CALLVALUE DUP1 ISZERO PUSH2 0x10 JUMPI PUSH1 0x0 DUP1 REVERT JUMPDEST POP PUSH1 0x0 DUP1 SLOAD PUSH1 0x1 PUSH1 0x1 PUSH1 0xA0 SHL SUB NOT AND CALLER OR SWAP1 SSTORE PUSH2 0x2BC DUP1 PUSH2 0x32 PUSH1 0x0 CODECOPY PUSH1 0x0 RETURN INVALID PUSH1 0x80 PUSH1 0x40 MSTORE CALLVALUE DUP1 ISZERO PUSH2 0x10 JUMPI PUSH1 0x0 DUP1 REVERT JUMPDEST POP PUSH1 0x4 CALLDATASIZE LT PUSH2 0x67 JUMPI PUSH1 0x0 CALLDATALOAD PUSH1 0xE0 SHR DUP1 PUSH4 0x71404156 GT PUSH2 0x50 JUMPI DUP1 PUSH4 0x71404156 EQ PUSH2 0xD0 JUMPI DUP1 PUSH4 0x8DA5CB5B EQ PUSH2 0xE3 JUMPI DUP1 PUSH4 0xA526D83B EQ PUSH2 0x10E JUMPI PUSH1 0x0 DUP1 REVERT JUMPDEST DUP1 PUSH4 0x633B14A EQ PUSH2 0x6C JUMPI DUP1 PUSH4 0xC68BA21 EQ PUSH2 0xA4 JUMPI JUMPDEST PUSH1 0x0 DUP1 REVERT JUMPDEST PUSH2 0x8F PUSH2 0x7A CALLDATASIZE PUSH1 0x4 PUSH2 0x256 JUMP JUMPDEST PUSH1 0x1 PUSH1 0x20 MSTORE PUSH1 0x0 SWAP1 DUP2 MSTORE PUSH1 0x40 SWAP1 KECCAK256 SLOAD PUSH1 0xFF AND DUP2 JUMP JUMPDEST PUSH1 0x40 MLOAD SWAP1 ISZERO ISZERO DUP2 MSTORE PUSH1 0x20 ADD JUMPDEST PUSH1 0x40 MLOAD DUP1 SWAP2 SUB SWAP1 RETURN JUMPDEST PUSH2 0x8F PUSH2 0xB2 CALLDATASIZE PUSH1 0x4 PUSH2 0x256 JUMP JUMPDEST PUSH1 0x1 PUSH1 0x1 PUSH1 0xA0 SHL SUB AND PUSH1 0x0 SWAP1 DUP2 MSTORE PUSH1 0x1 PUSH1 0x20 MSTORE PUSH1 0x40 SWAP1 KECCAK256 SLOAD PUSH1 0xFF AND SWAP1 JUMP JUMPDEST PUSH2 0x8F PUSH2 0xDE CALLDATASIZE PUSH1 0x4 PUSH2 0x256 JUMP JUMPDEST PUSH2 0x121 JUMP JUMPDEST PUSH1 0x0 SLOAD PUSH2 0xF6 SWAP1 PUSH1 0x1 PUSH1 0x1 PUSH1 0xA0 SHL SUB AND DUP2 JUMP JUMPDEST PUSH1 0x40 MLOAD PUSH1 0x1 PUSH1 0x1 PUSH1 0xA0 SHL SUB SWAP1 SWAP2 AND DUP2 MSTORE PUSH1 0x20 ADD PUSH2 0x9B JUMP JUMPDEST PUSH2 0x8F PUSH2 0x11C CALLDATASIZE PUSH1 0x4 PUSH2 0x256 JUMP JUMPDEST PUSH2 0x1BB JUMP JUMPDEST PUSH1 0x0 DUP1 SLOAD PUSH1 0x1 PUSH1 0x1 PUSH1 0xA0 SHL SUB AND CALLER EQ PUSH2 0x16D JUMPI PUSH1 0x40 MLOAD PUSH3 0x461BCD PUSH1 0xE5 SHL DUP2 MSTORE PUSH1 0x20 PUSH1 0x4 DUP3 ADD MSTORE PUSH1 0x9 PUSH1 0x24 DUP3 ADD MSTORE PUSH9 0x2737BA1037BBB732B9 PUSH1 0xB9 SHL PUSH1 0x44 DUP3 ADD MSTORE PUSH1 0x64 ADD JUMPDEST PUSH1 0x40 MLOAD DUP1 SWAP2 SUB SWAP1 REVERT JUMPDEST PUSH1 0x1 PUSH1 0x1 PUSH1 0xA0 SHL SUB DUP3 AND PUSH1 0x0 DUP2 DUP2 MSTORE PUSH1 0x1 PUSH1 0x20 MSTORE PUSH1 0x40 DUP1 DUP3 KECCAK256 DUP1 SLOAD PUSH1 0xFF NOT AND SWAP1 SSTORE MLOAD PUSH32 0xB8107D0C6B40BE480CE3172EE66BA6D64B71F6B1685A851340036E6E2E3E3C52 SWAP2 SWAP1 LOG2 POP PUSH1 0x1 SWAP2 SWAP1 POP JUMP JUMPDEST PUSH1 0x0 DUP1 SLOAD PUSH1 0x1 PUSH1 0x1 PUSH1 0xA0 SHL SUB AND CALLER EQ PUSH2 0x202 JUMPI PUSH1 0x40 MLOAD PUSH3 0x461BCD PUSH1 0xE5 SHL DUP2 MSTORE PUSH1 0x20 PUSH1 0x4 DUP3 ADD MSTORE PUSH1 0x9 PUSH1 0x24 DUP3 ADD MSTORE PUSH9 0x2737BA1037BBB732B9 PUSH1 0xB9 SHL PUSH1 0x44 DUP3 ADD MSTORE PUSH1 0x64 ADD PUSH2 0x164 JUMP JUMPDEST PUSH1 0x1 PUSH1 0x1 PUSH1 0xA0 SHL SUB DUP3 AND PUSH1 0x0 DUP2 DUP2 MSTORE PUSH1 0x1 PUSH1 0x20 DUP2 SWAP1 MSTORE PUSH1 0x40 DUP1 DUP4 KECCAK256 DUP1 SLOAD PUSH1 0xFF NOT AND SWAP1 SWAP3 OR SWAP1 SWAP2 SSTORE MLOAD PUSH32 0x38596BB31E2E7D3D9F184D4C98B310103F6D7F5830E5EEC32BFFE6F1728F969 SWAP2 SWAP1 LOG2 POP PUSH1 0x1 SWAP2 SWAP1 POP JUMP JUMPDEST PUSH1 0x0 PUSH1 0x20 DUP3 DUP5 SUB SLT ISZERO PUSH2 0x268 JUMPI PUSH1 0x0 DUP1 REVERT JUMPDEST DUP2 CALLDATALOAD PUSH1 0x1 PUSH1 0x1 PUSH1 0xA0 SHL SUB DUP2 AND DUP2 EQ PUSH2 0x27F JUMPI PUSH1 0x0 DUP1 REVERT JUMPDEST SWAP4 SWAP3 POP POP POP JUMP INVALID LOG2 PUSH5 0x6970667358 0x22 SLT KECCAK256 BASEFEE 0xB1 0x5F PUSH18 0x1976978B9A8AE5BAB1B55C9F87423969012 0x2E SWAP4 DUP7 POP 0x23 0xD0 PUSH3 0xF98F88 PUSH5 0x736F6C6343 STOP ADDMOD SGT STOP CALLER "},"methodIdentifiers":{"addGuardian(address)":"a526d83b","guardians(address)":"0633b14a","isGuardian(address)":"0c68ba21","owner()":"8da5cb5b","removeGuardian(address)":"71404156"}}}}}