{"node_modules/@chainlink/contracts/src/v0.8/functions/v1_0_0/libraries/FunctionsRequest.sol":{"FunctionsRequest":{"abi":[{"inputs":[],"name":"EmptyArgs","type":"error"},{"inputs":[],"name":"EmptySecrets","type":"error"},{"inputs":[],"name":"EmptySource","type":"error"},{"inputs":[],"name":"NoInlineSecrets","type":"error"},{"inputs":[],"name":"REQUEST_DATA_VERSION","outputs":[{"internalType":"uint16","name":"","type":"uint16"}],"stateMutability":"view","type":"function"}],"evm":{"bytecode":{"linkReferences":{},"object":"608c610038600b82828239805160001a607314602b57634e487b7160e01b600052600060045260246000fd5b30600052607381538281f3fe730000000000000000000000000000000000000000301460806040526004361060335760003560e01c80635d641dfc146038575b600080fd5b603f600181565b60405161ffff909116815260200160405180910390f3fea2646970667358221220dc2e929f2a2ac9cb2bd389308a9dd050c80e06b8e3f44b97cf0dafeb7834acae64736f6c63430008130033","opcodes":"PUSH1 0x8C PUSH2 0x38 PUSH1 0xB DUP3 DUP3 DUP3 CODECOPY DUP1 MLOAD PUSH1 0x0 BYTE PUSH1 0x73 EQ PUSH1 0x2B JUMPI PUSH4 0x4E487B71 PUSH1 0xE0 SHL PUSH1 0x0 MSTORE PUSH1 0x0 PUSH1 0x4 MSTORE PUSH1 0x24 PUSH1 0x0 REVERT JUMPDEST ADDRESS PUSH1 0x0 MSTORE PUSH1 0x73 DUP2 MSTORE8 DUP3 DUP2 RETURN INVALID PUSH20 0x0 ADDRESS EQ PUSH1 0x80 PUSH1 0x40 MSTORE PUSH1 0x4 CALLDATASIZE LT PUSH1 0x33 JUMPI PUSH1 0x0 CALLDATALOAD PUSH1 0xE0 SHR DUP1 PUSH4 0x5D641DFC EQ PUSH1 0x38 JUMPI JUMPDEST PUSH1 0x0 DUP1 REVERT JUMPDEST PUSH1 0x3F PUSH1 0x1 DUP2 JUMP JUMPDEST PUSH1 0x40 MLOAD PUSH2 0xFFFF SWAP1 SWAP2 AND DUP2 MSTORE PUSH1 0x20 ADD PUSH1 0x40 MLOAD DUP1 SWAP2 SUB SWAP1 RETURN INVALID LOG2 PUSH5 0x6970667358 0x22 SLT KECCAK256 0xDC 0x2E SWAP3 SWAP16 0x2A 0x2A 0xC9 0xCB 0x2B 0xD3 DUP10 ADDRESS DUP11 SWAP14 0xD0 POP 0xC8 0xE MOD 0xB8 0xE3 DELEGATECALL 0x4B SWAP8 0xCF 0xD 0xAF 0xEB PUSH25 0x34ACAE64736F6C634300081300330000000000000000000000 "},"methodIdentifiers":{"REQUEST_DATA_VERSION()":"5d641dfc"}}}}}