{"contracts/RiskLock.sol":{"RiskLock":{"abi":[{"inputs":[{"internalType":"address","name":"_guardianContract","type":"address"},{"internalType":"address","name":"_functionsConsumer","type":"address"}],"stateMutability":"nonpayable","type":"constructor"},{"anonymous":false,"inputs":[{"indexed":false,"internalType":"bool","name":"locked","type":"bool"}],"name":"LockUpdated","type":"event"},{"inputs":[],"name":"functionsConsumer","outputs":[{"internalType":"address","name":"","type":"address"}],"stateMutability":"view","type":"function"},{"inputs":[],"name":"guardianContract","outputs":[{"internalType":"address","name":"","type":"address"}],"stateMutability":"view","type":"function"},{"inputs":[],"name":"guardianUnlock","outputs":[],"stateMutability":"nonpayable","type":"function"},{"inputs":[],"name":"isLocked","outputs":[{"internalType":"bool","name":"","type":"bool"}],"stateMutability":"view","type":"function"},{"inputs":[{"internalType":"bool","name":"locked","type":"bool"}],"name":"updateLockFromFunctions","outputs":[],"stateMutability":"nonpayable","type":"function"}],"evm":{"bytecode":{"linkReferences":{},"object":"608060405234801561001057600080fd5b506040516104b23803806104b283398101604081905261002f9161012d565b6001600160a01b03821661008a5760405162461bcd60e51b815260206004820152601860248201527f496e76616c696420677561726469616e2061646472657373000000000000000060448201526064015b60405180910390fd5b6001600160a01b0381166100e05760405162461bcd60e51b815260206004820152601860248201527f496e76616c696420636f6e73756d6572206164647265737300000000000000006044820152606401610081565b600080546001600160a01b039384166001600160a01b03199182161790915560018054929093169116179055610160565b80516001600160a01b038116811461012857600080fd5b919050565b6000806040838503121561014057600080fd5b61014983610111565b915061015760208401610111565b90509250929050565b6103438061016f6000396000f3fe608060405234801561001057600080fd5b50600436106100675760003560e01c80634d13fde4116100505780634d13fde4146100a65780639ff5c889146100b9578063a4e2d634146100cc57600080fd5b80630689bafd1461006c578063118d83911461009c575b600080fd5b60015461007f906001600160a01b031681565b6040516001600160a01b0390911681526020015b60405180910390f35b6100a46100f0565b005b6100a46100b43660046102cc565b610209565b60005461007f906001600160a01b031681565b6001546100e090600160a01b900460ff1681565b6040519015158152602001610093565b6000546040517f0c68ba210000000000000000000000000000000000000000000000000000000081523360048201526001600160a01b0390911690630c68ba2190602401602060405180830381865afa158015610151573d6000803e3d6000fd5b505050506040513d601f19601f8201168201806040525081019061017591906102f0565b6101c65760405162461bcd60e51b815260206004820152600c60248201527f4e6f7420677561726469616e000000000000000000000000000000000000000060448201526064015b60405180910390fd5b6001805460ff60a01b19169055604051600081527f9cfe68509a0afdd7d91bf0d47685d4ae37a164c0f0abb09da54a2546b693d4ce9060200160405180910390a1565b6001546001600160a01b031633146102635760405162461bcd60e51b815260206004820152601560248201527f4e6f742046756e6374696f6e73436f6e73756d6572000000000000000000000060448201526064016101bd565b60018054821515600160a01b0260ff60a01b199091161790556040517f9cfe68509a0afdd7d91bf0d47685d4ae37a164c0f0abb09da54a2546b693d4ce906102b090831515815260200190565b60405180910390a150565b80151581146102c957600080fd5b50565b6000602082840312156102de57600080fd5b81356102e9816102bb565b9392505050565b60006020828403121561030257600080fd5b81516102e9816102bb56fea26469706673582212207f3fb014d8eefca75123eecf6fb8525d7872f3b67b9fc5cb0306f4b083b3477d64736f6c63430008130033","opcodes":"PUSH1 0x80 PUSH1 0x40 MSTORE CALLVALUE DUP1 ISZERO PUSH2 0x10 JUMPI PUSH1 0x0 DUP1 REVERT JUMPDEST POP PUSH1 0x40 MLOAD PUSH2 0x4B2 CODESIZE SUB DUP1 PUSH2 0x4B2 DUP4 CODECOPY DUP2 ADD PUSH1 0x40 DUP2 SWAP1 MSTORE PUSH2 0x2F SWAP2 PUSH2 0x12D JUMP JUMPDEST PUSH1 0x1 PUSH1 0x1 PUSH1 0xA0 SHL SUB DUP3 AND PUSH2 0x8A JUMPI PUSH1 0x40 MLOAD PUSH3 0x461BCD PUSH1 0xE5 SHL DUP2 MSTORE PUSH1 0x20 PUSH1 0x4 DUP3 ADD MSTORE PUSH1 0x18 PUSH1 0x24 DUP3 ADD MSTORE PUSH32 0x496E76616C696420677561726469616E20616464726573730000000000000000 PUSH1 0x44 DUP3 ADD MSTORE PUSH1 0x64 ADD JUMPDEST PUSH1 0x40 MLOAD DUP1 SWAP2 SUB SWAP1 REVERT JUMPDEST PUSH1 0x1 PUSH1 0x1 PUSH1 0xA0 SHL SUB DUP2 AND PUSH2 0xE0 JUMPI PUSH1 0x40 MLOAD PUSH3 0x461BCD PUSH1 0xE5 SHL DUP2 MSTORE PUSH1 0x20 PUSH1 0x4 DUP3 ADD MSTORE PUSH1 0x18 PUSH1 0x24 DUP3 ADD MSTORE PUSH32 0x496E76616C696420636F6E73756D657220616464726573730000000000000000 PUSH1 0x44 DUP3 ADD MSTORE PUSH1 0x64 ADD PUSH2 0x81 JUMP JUMPDEST PUSH1 0x0 DUP1 SLOAD PUSH1 0x1 PUSH1 0x1 PUSH1 0xA0 SHL SUB SWAP4 DUP5 AND PUSH1 0x1 PUSH1 0x1 PUSH1 0xA0 SHL SUB NOT SWAP2 DUP3 AND OR SWAP1 SWAP2 SSTORE PUSH1 0x1 DUP1 SLOAD SWAP3 SWAP1 SWAP4 AND SWAP2 AND OR SWAP1 SSTORE PUSH2 0x160 JUMP JUMPDEST DUP1 MLOAD PUSH1 0x1 PUSH1 0x1 PUSH1 0xA0 SHL SUB DUP2 AND DUP2 EQ PUSH2 0x128 JUMPI PUSH1 0x0 DUP1 REVERT JUMPDEST SWAP2 SWAP1 POP JUMP JUMPDEST PUSH1 0x0 DUP1 PUSH1 0x40 DUP4 DUP6 SUB SLT ISZERO PUSH2 0x140 JUMPI PUSH1 0x0 DUP1 REVERT JUMPDEST PUSH2 0x149 DUP4 PUSH2 0x111 JUMP JUMPDEST SWAP2 POP PUSH2 0x157 PUSH1 0x20 DUP5 ADD PUSH2 0x111 JUMP JUMPDEST SWAP1 POP SWAP3 POP SWAP3 SWAP1 POP JUMP JUMPDEST PUSH2 0x343 DUP1 PUSH2 0x16F PUSH1 0x0 CODECOPY PUSH1 0x0 RETURN INVALID PUSH1 0x80 PUSH1 0x40 MSTORE CALLVALUE DUP1 ISZERO PUSH2 0x10 JUMPI PUSH1 0x0 DUP1 REVERT JUMPDEST POP PUSH1 0x4 CALLDATASIZE LT PUSH2 0x67 JUMPI PUSH1 0x0 CALLDATALOAD PUSH1 0xE0 SHR DUP1 PUSH4 0x4D13FDE4 GT PUSH2 0x50 JUMPI DUP1 PUSH4 0x4D13FDE4 EQ PUSH2 0xA6 JUMPI DUP1 PUSH4 0x9FF5C889 EQ PUSH2 0xB9 JUMPI DUP1 PUSH4 0xA4E2D634 EQ PUSH2 0xCC JUMPI PUSH1 0x0 DUP1 REVERT JUMPDEST DUP1 PUSH4 0x689BAFD EQ PUSH2 0x6C JUMPI DUP1 PUSH4 0x118D8391 EQ PUSH2 0x9C JUMPI JUMPDEST PUSH1 0x0 DUP1 REVERT JUMPDEST PUSH1 0x1 SLOAD PUSH2 0x7F SWAP1 PUSH1 0x1 PUSH1 0x1 PUSH1 0xA0 SHL SUB AND DUP2 JUMP JUMPDEST PUSH1 0x40 MLOAD PUSH1 0x1 PUSH1 0x1 PUSH1 0xA0 SHL SUB SWAP1 SWAP2 AND DUP2 MSTORE PUSH1 0x20 ADD JUMPDEST PUSH1 0x40 MLOAD DUP1 SWAP2 SUB SWAP1 RETURN JUMPDEST PUSH2 0xA4 PUSH2 0xF0 JUMP JUMPDEST STOP JUMPDEST PUSH2 0xA4 PUSH2 0xB4 CALLDATASIZE PUSH1 0x4 PUSH2 0x2CC JUMP JUMPDEST PUSH2 0x209 JUMP JUMPDEST PUSH1 0x0 SLOAD PUSH2 0x7F SWAP1 PUSH1 0x1 PUSH1 0x1 PUSH1 0xA0 SHL SUB AND DUP2 JUMP JUMPDEST PUSH1 0x1 SLOAD PUSH2 0xE0 SWAP1 PUSH1 0x1 PUSH1 0xA0 SHL SWAP1 DIV PUSH1 0xFF AND DUP2 JUMP JUMPDEST PUSH1 0x40 MLOAD SWAP1 ISZERO ISZERO DUP2 MSTORE PUSH1 0x20 ADD PUSH2 0x93 JUMP JUMPDEST PUSH1 0x0 SLOAD PUSH1 0x40 MLOAD PUSH32 0xC68BA2100000000000000000000000000000000000000000000000000000000 DUP2 MSTORE CALLER PUSH1 0x4 DUP3 ADD MSTORE PUSH1 0x1 PUSH1 0x1 PUSH1 0xA0 SHL SUB SWAP1 SWAP2 AND SWAP1 PUSH4 0xC68BA21 SWAP1 PUSH1 0x24 ADD PUSH1 0x20 PUSH1 0x40 MLOAD DUP1 DUP4 SUB DUP2 DUP7 GAS STATICCALL ISZERO DUP1 ISZERO PUSH2 0x151 JUMPI RETURNDATASIZE PUSH1 0x0 DUP1 RETURNDATACOPY RETURNDATASIZE PUSH1 0x0 REVERT JUMPDEST POP POP POP POP PUSH1 0x40 MLOAD RETURNDATASIZE PUSH1 0x1F NOT PUSH1 0x1F DUP3 ADD AND DUP3 ADD DUP1 PUSH1 0x40 MSTORE POP DUP2 ADD SWAP1 PUSH2 0x175 SWAP2 SWAP1 PUSH2 0x2F0 JUMP JUMPDEST PUSH2 0x1C6 JUMPI PUSH1 0x40 MLOAD PUSH3 0x461BCD PUSH1 0xE5 SHL DUP2 MSTORE PUSH1 0x20 PUSH1 0x4 DUP3 ADD MSTORE PUSH1 0xC PUSH1 0x24 DUP3 ADD MSTORE PUSH32 0x4E6F7420677561726469616E0000000000000000000000000000000000000000 PUSH1 0x44 DUP3 ADD MSTORE PUSH1 0x64 ADD JUMPDEST PUSH1 0x40 MLOAD DUP1 SWAP2 SUB SWAP1 REVERT JUMPDEST PUSH1 0x1 DUP1 SLOAD PUSH1 0xFF PUSH1 0xA0 SHL NOT AND SWAP1 SSTORE PUSH1 0x40 MLOAD PUSH1 0x0 DUP2 MSTORE PUSH32 0x9CFE68509A0AFDD7D91BF0D47685D4AE37A164C0F0ABB09DA54A2546B693D4CE SWAP1 PUSH1 0x20 ADD PUSH1 0x40 MLOAD DUP1 SWAP2 SUB SWAP1 LOG1 JUMP JUMPDEST PUSH1 0x1 SLOAD PUSH1 0x1 PUSH1 0x1 PUSH1 0xA0 SHL SUB AND CALLER EQ PUSH2 0x263 JUMPI PUSH1 0x40 MLOAD PUSH3 0x461BCD PUSH1 0xE5 SHL DUP2 MSTORE PUSH1 0x20 PUSH1 0x4 DUP3 ADD MSTORE PUSH1 0x15 PUSH1 0x24 DUP3 ADD MSTORE PUSH32 0x4E6F742046756E6374696F6E73436F6E73756D65720000000000000000000000 PUSH1 0x44 DUP3 ADD MSTORE PUSH1 0x64 ADD PUSH2 0x1BD JUMP JUMPDEST PUSH1 0x1 DUP1 SLOAD DUP3 ISZERO ISZERO PUSH1 0x1 PUSH1 0xA0 SHL MUL PUSH1 0xFF PUSH1 0xA0 SHL NOT SWAP1 SWAP2 AND OR SWAP1 SSTORE PUSH1 0x40 MLOAD PUSH32 0x9CFE68509A0AFDD7D91BF0D47685D4AE37A164C0F0ABB09DA54A2546B693D4CE SWAP1 PUSH2 0x2B0 SWAP1 DUP4 ISZERO ISZERO DUP2 MSTORE PUSH1 0x20 ADD SWAP1 JUMP JUMPDEST PUSH1 0x40 MLOAD DUP1 SWAP2 SUB SWAP1 LOG1 POP JUMP JUMPDEST DUP1 ISZERO ISZERO DUP2 EQ PUSH2 0x2C9 JUMPI PUSH1 0x0 DUP1 REVERT JUMPDEST POP JUMP JUMPDEST PUSH1 0x0 PUSH1 0x20 DUP3 DUP5 SUB SLT ISZERO PUSH2 0x2DE JUMPI PUSH1 0x0 DUP1 REVERT JUMPDEST DUP2 CALLDATALOAD PUSH2 0x2E9 DUP2 PUSH2 0x2BB JUMP JUMPDEST SWAP4 SWAP3 POP POP POP JUMP JUMPDEST PUSH1 0x0 PUSH1 0x20 DUP3 DUP5 SUB SLT ISZERO PUSH2 0x302 JUMPI PUSH1 0x0 DUP1 REVERT JUMPDEST DUP2 MLOAD PUSH2 0x2E9 DUP2 PUSH2 0x2BB JUMP INVALID LOG2 PUSH5 0x6970667358 0x22 SLT KECCAK256 PUSH32 0x3FB014D8EEFCA75123EECF6FB8525D7872F3B67B9FC5CB0306F4B083B3477D64 PUSH20 0x6F6C634300081300330000000000000000000000 "},"methodIdentifiers":{"functionsConsumer()":"0689bafd","guardianContract()":"9ff5c889","guardianUnlock()":"118d8391","isLocked()":"a4e2d634","updateLockFromFunctions(bool)":"4d13fde4"}}}}}