{
  "_format": "hh-sol-artifact-1",
  "contractName": "RiskFunctionsConsumer",
  "sourceName": "contracts/RiskFunctionsConsumer.sol",
  "abi": [
    {
      "inputs": [
        {
          "internalType": "address",
          "name": "router",
          "type": "address"
        },
        {
          "internalType": "address",
          "name": "_riskLock",
          "type": "address"
        }
      ],
      "stateMutability": "nonpayable",
      "type": "constructor"
    },
    {
      "inputs": [],
      "name": "OnlyRouterCanFulfill",
      "type": "error"
    },
    {
      "anonymous": false,
      "inputs": [
        {
          "indexed": true,
          "internalType": "bytes32",
          "name": "id",
          "type": "bytes32"
        }
      ],
      "name": "RequestFulfilled",
      "type": "event"
    },
    {
      "anonymous": false,
      "inputs": [
        {
          "indexed": true,
          "internalType": "bytes32",
          "name": "id",
          "type": "bytes32"
        }
      ],
      "name": "RequestSent",
      "type": "event"
    },
    {
      "anonymous": false,
      "inputs": [
        {
          "indexed": true,
          "internalType": "bytes32",
          "name": "requestId",
          "type": "bytes32"
        },
        {
          "indexed": false,
          "internalType": "bytes",
          "name": "result",
          "type": "bytes"
        },
        {
          "indexed": false,
          "internalType": "bytes",
          "name": "err",
          "type": "bytes"
        }
      ],
      "name": "ResponseReceived",
      "type": "event"
    },
    {
      "inputs": [
        {
          "internalType": "bytes32",
          "name": "requestId",
          "type": "bytes32"
        },
        {
          "internalType": "bytes",
          "name": "response",
          "type": "bytes"
        },
        {
          "internalType": "bytes",
          "name": "err",
          "type": "bytes"
        }
      ],
      "name": "handleOracleFulfillment",
      "outputs": [],
      "stateMutability": "nonpayable",
      "type": "function"
    },
    {
      "inputs": [],
      "name": "owner",
      "outputs": [
        {
          "internalType": "address",
          "name": "",
          "type": "address"
        }
      ],
      "stateMutability": "view",
      "type": "function"
    },
    {
      "inputs": [],
      "name": "riskLock",
      "outputs": [
        {
          "internalType": "address",
          "name": "",
          "type": "address"
        }
      ],
      "stateMutability": "view",
      "type": "function"
    }
  ],
  "bytecode": "0x60a060405234801561001057600080fd5b506040516104dc3803806104dc83398101604081905261002f91610080565b6001600160a01b03918216608052600080546001600160a01b03199081163317909155600180549290931691161790556100b3565b80516001600160a01b038116811461007b57600080fd5b919050565b6000806040838503121561009357600080fd5b61009c83610064565b91506100aa60208401610064565b90509250929050565b60805161040f6100cd600039600060a8015261040f6000f3fe608060405234801561001057600080fd5b50600436106100415760003560e01c80630ca76175146100465780638da5cb5b1461005b5780639e3836de1461008a575b600080fd5b6100596100543660046102cf565b61009d565b005b60005461006e906001600160a01b031681565b6040516001600160a01b03909116815260200160405180910390f35b60015461006e906001600160a01b031681565b336001600160a01b037f000000000000000000000000000000000000000000000000000000000000000016146100ff576040517fc6829f8300000000000000000000000000000000000000000000000000000000815260040160405180910390fd5b61010a83838361013a565b60405183907f85e1543bf2f84fe80c6badbce3648c8539ad1df4d2b3d822938ca0538be727e690600090a2505050565b827f9075ab953f4b4f161e64109ef0a89af6572e9dae864980dd1f697f83da7f78c2838360405161016c929190610382565b60405180910390a2805160000361020e5760008280602001905181019061019391906103b0565b6001546040517f4d13fde400000000000000000000000000000000000000000000000000000000815282151560048201529192506001600160a01b031690634d13fde490602401600060405180830381600087803b1580156101f457600080fd5b505af1158015610208573d6000803e3d6000fd5b50505050505b505050565b7f4e487b7100000000000000000000000000000000000000000000000000000000600052604160045260246000fd5b600082601f83011261025357600080fd5b813567ffffffffffffffff8082111561026e5761026e610213565b604051601f8301601f19908116603f0116810190828211818310171561029657610296610213565b816040528381528660208588010111156102af57600080fd5b836020870160208301376000602085830101528094505050505092915050565b6000806000606084860312156102e457600080fd5b83359250602084013567ffffffffffffffff8082111561030357600080fd5b61030f87838801610242565b9350604086013591508082111561032557600080fd5b5061033286828701610242565b9150509250925092565b6000815180845260005b8181101561036257602081850181015186830182015201610346565b506000602082860101526020601f19601f83011685010191505092915050565b604081526000610395604083018561033c565b82810360208401526103a7818561033c565b95945050505050565b6000602082840312156103c257600080fd5b815180151581146103d257600080fd5b939250505056fea264697066735822122050111076b0c3332bca5c4f79699c0d847b234564339f06dad693879c908d7dfc64736f6c63430008130033",
  "linkReferences": {},
  "deployedLinkReferences": {}
}