{
  "_format": "hh-sol-artifact-1",
  "contractName": "Guardian",
  "sourceName": "contracts/Gaurdian.sol",
  "abi": [
    {
      "inputs": [],
      "stateMutability": "nonpayable",
      "type": "constructor"
    },
    {
      "anonymous": false,
      "inputs": [
        {
          "indexed": true,
          "internalType": "address",
          "name": "guardian",
          "type": "address"
        }
      ],
      "name": "GuardianAdded",
      "type": "event"
    },
    {
      "anonymous": false,
      "inputs": [
        {
          "indexed": true,
          "internalType": "address",
          "name": "guardian",
          "type": "address"
        }
      ],
      "name": "GuardianRemoved",
      "type": "event"
    },
    {
      "inputs": [
        {
          "internalType": "address",
          "name": "guardian",
          "type": "address"
        }
      ],
      "name": "addGuardian",
      "outputs": [
        {
          "internalType": "bool",
          "name": "",
          "type": "bool"
        }
      ],
      "stateMutability": "nonpayable",
      "type": "function"
    },
    {
      "inputs": [
        {
          "internalType": "address",
          "name": "",
          "type": "address"
        }
      ],
      "name": "guardians",
      "outputs": [
        {
          "internalType": "bool",
          "name": "",
          "type": "bool"
        }
      ],
      "stateMutability": "view",
      "type": "function"
    },
    {
      "inputs": [
        {
          "internalType": "address",
          "name": "caller",
          "type": "address"
        }
      ],
      "name": "isGuardian",
      "outputs": [
        {
          "internalType": "bool",
          "name": "",
          "type": "bool"
        }
      ],
      "stateMutability": "view",
      "type": "function"
    },
    {
      "inputs": [],
      "name": "owner",
      "outputs": [
        {
          "internalType": "address",
          "name": "",
          "type": "address"
        }
      ],
      "stateMutability": "view",
      "type": "function"
    },
    {
      "inputs": [
        {
          "internalType": "address",
          "name": "guardian",
          "type": "address"
        }
      ],
      "name": "removeGuardian",
      "outputs": [
        {
          "internalType": "bool",
          "name": "",
          "type": "bool"
        }
      ],
      "stateMutability": "nonpayable",
      "type": "function"
    }
  ],
  "bytecode": "0x608060405234801561001057600080fd5b50600080546001600160a01b031916331790556102bc806100326000396000f3fe608060405234801561001057600080fd5b50600436106100675760003560e01c8063714041561161005057806371404156146100d05780638da5cb5b146100e3578063a526d83b1461010e57600080fd5b80630633b14a1461006c5780630c68ba21146100a4575b600080fd5b61008f61007a366004610256565b60016020526000908152604090205460ff1681565b60405190151581526020015b60405180910390f35b61008f6100b2366004610256565b6001600160a01b031660009081526001602052604090205460ff1690565b61008f6100de366004610256565b610121565b6000546100f6906001600160a01b031681565b6040516001600160a01b03909116815260200161009b565b61008f61011c366004610256565b6101bb565b600080546001600160a01b0316331461016d5760405162461bcd60e51b81526020600482015260096024820152682737ba1037bbb732b960b91b60448201526064015b60405180910390fd5b6001600160a01b038216600081815260016020526040808220805460ff19169055517fb8107d0c6b40be480ce3172ee66ba6d64b71f6b1685a851340036e6e2e3e3c529190a2506001919050565b600080546001600160a01b031633146102025760405162461bcd60e51b81526020600482015260096024820152682737ba1037bbb732b960b91b6044820152606401610164565b6001600160a01b0382166000818152600160208190526040808320805460ff1916909217909155517f038596bb31e2e7d3d9f184d4c98b310103f6d7f5830e5eec32bffe6f1728f9699190a2506001919050565b60006020828403121561026857600080fd5b81356001600160a01b038116811461027f57600080fd5b939250505056fea264697066735822122048b15f7101976978b9a8ae5bab1b55c9f874239690122e93865023d062f98f8864736f6c63430008130033",
  "linkReferences": {},
  "deployedLinkReferences": {}
}