{
  "_format": "hh-sol-artifact-1",
  "contractName": "RiskLock",
  "sourceName": "contracts/RiskLock.sol",
  "abi": [
    {
      "inputs": [
        {
          "internalType": "address",
          "name": "_guardianContract",
          "type": "address"
        },
        {
          "internalType": "address",
          "name": "_functionsConsumer",
          "type": "address"
        }
      ],
      "stateMutability": "nonpayable",
      "type": "constructor"
    },
    {
      "anonymous": false,
      "inputs": [
        {
          "indexed": false,
          "internalType": "bool",
          "name": "locked",
          "type": "bool"
        }
      ],
      "name": "LockUpdated",
      "type": "event"
    },
    {
      "inputs": [],
      "name": "functionsConsumer",
      "outputs": [
        {
          "internalType": "address",
          "name": "",
          "type": "address"
        }
      ],
      "stateMutability": "view",
      "type": "function"
    },
    {
      "inputs": [],
      "name": "guardianContract",
      "outputs": [
        {
          "internalType": "address",
          "name": "",
          "type": "address"
        }
      ],
      "stateMutability": "view",
      "type": "function"
    },
    {
      "inputs": [],
      "name": "guardianUnlock",
      "outputs": [],
      "stateMutability": "nonpayable",
      "type": "function"
    },
    {
      "inputs": [],
      "name": "isLocked",
      "outputs": [
        {
          "internalType": "bool",
          "name": "",
          "type": "bool"
        }
      ],
      "stateMutability": "view",
      "type": "function"
    },
    {
      "inputs": [
        {
          "internalType": "bool",
          "name": "locked",
          "type": "bool"
        }
      ],
      "name": "updateLockFromFunctions",
      "outputs": [],
      "stateMutability": "nonpayable",
      "type": "function"
    }
  ],
  "bytecode": "0x608060405234801561001057600080fd5b506040516104b23803806104b283398101604081905261002f9161012d565b6001600160a01b03821661008a5760405162461bcd60e51b815260206004820152601860248201527f496e76616c696420677561726469616e2061646472657373000000000000000060448201526064015b60405180910390fd5b6001600160a01b0381166100e05760405162461bcd60e51b815260206004820152601860248201527f496e76616c696420636f6e73756d6572206164647265737300000000000000006044820152606401610081565b600080546001600160a01b039384166001600160a01b03199182161790915560018054929093169116179055610160565b80516001600160a01b038116811461012857600080fd5b919050565b6000806040838503121561014057600080fd5b61014983610111565b915061015760208401610111565b90509250929050565b6103438061016f6000396000f3fe608060405234801561001057600080fd5b50600436106100675760003560e01c80634d13fde4116100505780634d13fde4146100a65780639ff5c889146100b9578063a4e2d634146100cc57600080fd5b80630689bafd1461006c578063118d83911461009c575b600080fd5b60015461007f906001600160a01b031681565b6040516001600160a01b0390911681526020015b60405180910390f35b6100a46100f0565b005b6100a46100b43660046102cc565b610209565b60005461007f906001600160a01b031681565b6001546100e090600160a01b900460ff1681565b6040519015158152602001610093565b6000546040517f0c68ba210000000000000000000000000000000000000000000000000000000081523360048201526001600160a01b0390911690630c68ba2190602401602060405180830381865afa158015610151573d6000803e3d6000fd5b505050506040513d601f19601f8201168201806040525081019061017591906102f0565b6101c65760405162461bcd60e51b815260206004820152600c60248201527f4e6f7420677561726469616e000000000000000000000000000000000000000060448201526064015b60405180910390fd5b6001805460ff60a01b19169055604051600081527f9cfe68509a0afdd7d91bf0d47685d4ae37a164c0f0abb09da54a2546b693d4ce9060200160405180910390a1565b6001546001600160a01b031633146102635760405162461bcd60e51b815260206004820152601560248201527f4e6f742046756e6374696f6e73436f6e73756d6572000000000000000000000060448201526064016101bd565b60018054821515600160a01b0260ff60a01b199091161790556040517f9cfe68509a0afdd7d91bf0d47685d4ae37a164c0f0abb09da54a2546b693d4ce906102b090831515815260200190565b60405180910390a150565b80151581146102c957600080fd5b50565b6000602082840312156102de57600080fd5b81356102e9816102bb565b9392505050565b60006020828403121561030257600080fd5b81516102e9816102bb56fea26469706673582212207f3fb014d8eefca75123eecf6fb8525d7872f3b67b9fc5cb0306f4b083b3477d64736f6c63430008130033",
  "linkReferences": {},
  "deployedLinkReferences": {}
}